:020000040800F2
:10000000600600200D020008490200084B020008AB
:100010004D0200084F0200085102000800000000D5
:100020000000000000000000000000005302000873
:10003000550200080000000057020008590200089D
:100040005B0200085B0200085B0200085B0200081C
:100050005B0200085B0200085B0200085B0200080C
:100060005B0200085B0200085B0200085B020008FC
:100070005B0200085B0200085B0200085B020008EC
:100080005B0200085B0200085B0200085B020008DC
:100090005B0200085B0200085B0200085B020008CC
:1000A0005B0200085B0200085B0200085B020008BC
:1000B0005B0200085B0200085B0200085B020008AC
:1000C0005B0200085B0200085B0200085B0200089C
:1000D0005B0200085B0200085B0200085B0200088C
:1000E0005B0200085B0200085B0200085B0200087C
:1000F0005B0200085B0200085B0200085B0200086C
:100100005B0200085B0200085B0200085B0200085B
:100110005B0200085B0200085B0200085B0200084B
:100120005B0200085B0200085B0200085B0200083B
:100130005B0200085B0200085B0200085B0200082B
:100140005B0200085B0200085B0200085B0200081B
:100150005B0200085B0200085B0200085B0200080B
:100160005B0200085B0200085B0200085B020008FB
:100170005B0200085B0200085B0200080000000050
:100180005B0200085B02000800F002F800F02EF8A5
:100190000AA090E8000C82448344AAF10107DA45E2
:1001A00001D100F023F8AFF2090EBAE80F0013F006
:1001B000010F18BFFB1A43F0010318475C08000049
:1001C0006C0800000023002400250026103A28BFF8
:1001D00078C1FBD8520728BF30C148BF0B607047B9
:1001E0001FB500F013FC1FBD10B510BD00F072F874
:1001F0001146FFF7F5FF00F0C7FA00F090F803B4DE
:10020000FFF7F2FF03BC00F097F80000164817490B
:10021000174B99423CBF50F8042B41F8042BF8D3FC
:1002200014494FF000028B4238BF43F8042BFAD335
:10023000DFF84400016841F470010160BFF34F8FA3
:10024000BFF36F8F0D480047FEE7FEE7FEE7FEE7CE
:10025000FEE7FEE7FEE7FEE7FEE7FEE7084809499E
:10026000094A0A4B70470000280A000800000020D5
:10027000000000206006002088ED00E089010008F1
:100280006000002060060020600200206002002064
:1002900010B5431C02E010F8011B71B18107FAD1BF
:1002A0004FF0013202C88C1A8C4314EAC211F9D003
:1002B000C01A0A0603D0C01E10BDC01A10BD0A0421
:1002C00001D0801E10BD0902FCD0401E10BD704739
:1002D00070477047754600F02BF8AE46050069463A
:1002E000534620F00700854618B020B5FFF7B6FF4B
:1002F000BDE820404FF000064FF000074FF0000827
:100300004FF0000B21F00701AC46ACE8C009ACE8A7
:10031000C009ACE8C009ACE8C0098D46704710B50B
:100320000446AFF300802046BDE81040FFF767BFEA
:10033000004870470000002001491820ABBEFEE7CE
:1003400026000200704700000348406920F48070D6
:1003500001494861704700000010004803484069A7
:1003600040F4807001494861704700000010004867
:100370002348C06C40F012002149C8646FF030007F
:10038000204908600846006840F0100008601D48D9
:100390000830006820F030001A490831086008462B
:1003A000006840F030000860081F006820F004007A
:1003B000091F086013480C30006820F03000114914
:1003C0000C3108606FF440300F490860084600683F
:1003D00040F4803008600846806820F4403088602F
:1003E0000846806840F4403088600846406820F441
:1003F000807048600846C06820F44030C86070478C
:100400000010024000040048001000480348006843
:1004100020F00400014908607047000014040048FF
:100420000348006840F0040001490860704700007C
:10043000140400485E49096821F007015C4A116014
:100440001146096841F0020111605A49096841F4F6
:100450008071584A116000BF5649096801F48061F3
:100460000029F9D010205349496821F0F851514A28
:1004700051601146496841EA0061516011460968BE
:1004800021F08071116000BF4A49096801F00071D4
:10049000B1F1007FF8D04749C96821F00301454A0E
:1004A000D1601146C96841F00201D1601146C968A6
:1004B00021F4FE4141F4A051D1601146C96821F0F8
:1004C000700141F01001D1601146C96821F0C0618E
:1004D000D1601146C96841F08071D1601146096848
:1004E00041F08071116000BF3249096801F000716C
:1004F0000029F9D02F49896821F003012D4A916024
:100500001146896841F00301916000BF294989685B
:1005100001F00C010C29F9D12649896821F0F0017C
:10052000244A91601146896821F4E0619160114686
:10053000896821F4605191601146096821F0806159
:10054000116000BF1B49096801F08061B1F1806F43
:10055000F8D01849096921F4FE41164A1161114683
:10056000096941F4C05111611146096941F4003132
:1005700011611146096941F4803111611146096820
:1005800041F08061116000BF0A49096801F0806193
:100590000029F9D007498831096821F44001054A4A
:1005A000C2F888101146096E41F4001111667047B7
:1005B00000200240001002401A48C06C40F00800C1
:1005C0001849C8641848006820F47050164908603B
:1005D0000846006840F42050086013482030006846
:1005E00040F0EE601049203108600F480830006884
:1005F00040F470500C4908310860081D006820F470
:100600007050091D08600846006840F4A05008605A
:100610000548001D006820F060000349091D0860BE
:100620007047000000100240000C004800B50D4863
:10063000806D40F400300B4988650A4888300068B6
:1006400020F00C00C1F888000846D0F8880040F07F
:100650000400C1F88800FFF7AFFF034800F010F86E
:1006600000BD0000001002400044004064224243EC
:100670000723B2FBF3F100BF4A1E111EFCD17047E5
:10068000016821F001010160016821F01021016081
:10069000016821F400410160416821F4405141604A
:1006A00042F28D01C160016841F00C0101601E49F8
:1006B00088421BD1016841F020010160016821F0EE
:1006C00040010160016821F010010160016821F022
:1006D00080010160016821F480710160016821F0EE
:1006E00040010160016821F0010101600F49884269
:1006F00009D1016A41F0400101620D49096841F0E8
:10070000C0010B4A1160016841F00101016000BFA6
:10071000C16901F400110029FAD000BFC16901F4D8
:1007200080010029FAD07047004C0040004400408E
:10073000083801400146C86900F0200010B1888CDB
:10074000C0B270470020FCE7F0B504460E461746DD
:1007500000250CE000BFE06900F080000028FAD01E
:10076000705D20854FF49670FFF780FF6D1CBD42D1
:10077000F0D300BFE06900F040000028FAD0E06943
:1007800020F04000E061F0BD10B500F09DF800F0F1
:10079000B1F8002010BD00002348C06C40F00100FB
:1007A0002149C8644FF09040006840F60F418843EB
:1007B0004FF0904108600846006840F00A00086069
:1007C0000846006A40F0880008620846806840F0E9
:1007D0000F0088600846C06840F60F4188434FF01C
:1007E0009041C8600846C06840F6050108434FF0D4
:1007F0009041C8600846406820F0030048600A48FD
:10080000806D40F4002008498865074888300068FA
:1008100020F0C000C1F888000846D0F8880040F0F9
:100820004000C1F888007047001002402448C06CA6
:1008300040F002002249C8642248006820F4704059
:10084000204908600846006840F4204008601D48C0
:100850002030006840F0EE401A4920310860194805
:100860000830006840F47040164908310860081DDF
:10087000006820F47040091D08600846006840F4D4
:10088000A04008600F48001D006820F0C0000D491E
:10089000091D08600A48006E40F480400849086657
:1008A00007488830006820F00300C1F88800084637
:1008B000D0F8880040F00100C1F8880070470000BF
:1008C000001002400004004810B5FFF7B3FDFFF729
:1008D0004FFDFFF7ABFEFFF7A9FFFFF75DFF0348F2
:1008E000FFF7CEFE0248FFF7CBFE10BD00380140F7
:1008F000004C00401CB536A55A20019035200090D0
:100900000026002763E0012201A93C48FFF71CFFF5
:1009100000240EE03A48FFF70DFF80469DF80400E2
:10092000804501D1012607E04FF47A70FFF79EFE63
:10093000641CB4F5FA7FEDDB00BF01226946304844
:10094000FFF702FF00240EE02C48FFF7F3FE80467D
:100950009DF80000804501D1012707E04FF47A702F
:10096000FFF784FE641CB4F5FA7FEDDB00BF1EB117
:1009700017B1FFF7F3FC01E0FFF752FD2846FFF740
:1009800087FC8046424629461E48FFF7DDFE03E00D
:100990004FF47A70FFF76AFE4FF09040006900F064
:1009A00020000028F4D003E04FF47A70FFF75EFED9
:1009B0004FF09040006900F020000028F4D1FFF7CC
:1009C000C3FCFFF723FD1048FFF750FE00BF9AE776
:1009D000507265737320646F776E206F6E204A6F5C
:1009E00079737469636B20746F20726573746172BC
:1009F000742074657374732E0D0A00000038014072
:100A0000004C00400044004020A107004FF040701F
:100A1000E1EE100A70470000280A000800000020DC
:080A200060060000C40100089B
:040000050800018965
:00000001FF
