:020000040800F2
:1000000050070020310200086D0200086F0200084E
:100010007102000873020008750200080000000069
:10002000000000000000000000000000770200084F
:1000300079020008000000007B020008C1060008E9
:100040007F0200087F0200087F0200087F0200088C
:100050007F0200087F0200087F0200087F0200087C
:100060007F0200087F0200087F0200087F0200086C
:100070007F0200087F0200087F0200087F0200085C
:100080007F0200087F0200087F0200087F0200084C
:100090007F0200087F0200087F0200087F0200083C
:1000A0007F0200087F0200087F0200087F0200082C
:1000B0007F0200087F0200087F0200087F0200081C
:1000C0007F0200087F0200087F0200087F0200080C
:1000D0007F0200087F0200087F0200087F020008FC
:1000E0007F0200087F0200087F0200087F020008EC
:1000F0007F0200087F0200087F0200087F020008DC
:100100007F0200087F0200087F0200087F020008CB
:100110007F0200087F0200087F0200087F020008BB
:100120007F0200087F0200087F0200087F020008AB
:100130007F0200087F0200087F0200087F0200089B
:100140007F0200087F0200087F0200087F0200088B
:100150007F0200087F0200087F0200087F0200087B
:100160007F0200087F0200087F0200087F0200086B
:100170007F0200087F0200087F02000800000000E4
:100180007F0200087F02000800F002F800F040F84B
:100190000AA090E8000C82448344AAF10107DA45E2
:1001A00001D100F035F8AFF2090EBAE80F0013F0F4
:1001B000010F18BFFB1A43F001031847B80C0000E9
:1001C000D80C0000103A24BF78C878C1FAD852077A
:1001D00024BF30C830C144BF04680C6070470000C1
:1001E0000023002400250026103A28BF78C1FBD840
:1001F000520728BF30C148BF0B6070471FB500F0E1
:1002000015FE9DE8030000F0E9F81FBD10B510BD14
:1002100000F040F91146FFF7F1FF00F071FD00F02A
:100220005EF903B4FFF7F2FF03BC00F08FF90000A2
:1002300016481749174B99423CBF50F8042B41F818
:10024000042BF8D314494FF000028B4238BF43F817
:10025000042BFAD3DFF84400016841F47001016017
:10026000BFF34F8FBFF36F8F0D480047FEE7FEE7E8
:10027000FEE7FEE7FEE7FEE7FEE7FEE7FEE7FEE756
:1002800008480949094A0A4B70470000940E0008C3
:1002900000000020F00000205007002088ED00E062
:1002A0008901000850010020500700205003002061
:1002B0005003002070B5064600F074F8056806F19A
:1002C0000B0020F00704B4429CBF002070BD2B46F9
:1002D0006A68BAB11068A04210D304F108018842DC
:1002E0003CBF5068586007D35168101941601168CD
:1002F000091B016058601460101D70BD13465268E0
:10030000002AE7D12146284600F054F80028DED123
:1003100070BD70B50446051F00F044F80068002C5D
:1003200014BF446870BD002C18BFAC423CBF2046CF
:100330006468F8D301680A18AA4218BF456003D15F
:100340002A6805461144016028684119A1421CBF72
:100350006C6070BD6168696021680844286070BD88
:1003600010B5431C02E010F8011B71B18107FAD1EE
:100370004FF0013202C88C1A8C4314EAC211F9D032
:10038000C01A0A0603D0C01E10BDC01A10BD0A0450
:1003900001D0801E10BD0902FCD0401E10BD704768
:1003A0007047704700487047F8000020704770475A
:1003B0007047704738B504460A4600206946AFF3D7
:1003C0000080002808BF38BD02460099204600F092
:1003D0003FF8012038BD012000F054B8F8B5AFF364
:1003E0000080054600200C46102000BF0646A819D4
:1003F000A0420DD9324669460020AFF300800700C5
:1004000008BF00F03FF80098A04218BF0546C41985
:10041000FFF7C8FF05600746F01D20F007004619EA
:10042000284600F00AF8B44208BFF8BDA21B3146C6
:100430003868BDE8F84000F00BB800210160C0E961
:10044000011070471020704700487047F0000020EE
:10045000034640688C46002818BF88423CBF0346CC
:100460004068F8D318681844884207D00CF103009C
:1004700020F00700001D411A521A0146081D0A60AB
:10048000FFF747BF10B500F039F8BDE8104000F0A5
:100490002FB870477546FFF7D7FFAE46050069468F
:1004A000534620F00700854618B020B5FFF7E8FE58
:1004B000BDE820404FF000064FF000074FF0000865
:1004C0004FF0000B21F00701AC46ACE8C009ACE8E6
:1004D000C009ACE8C009ACE8C0098D46704710B54A
:1004E0000446AFF300802046BDE81040FFF799BEF8
:1004F000002801D000F02AB87047000010B501288C
:1005000005D0002103A000F027F8012010BD09A1AB
:10051000F8E7000053494752544D454D3A204F7576
:1005200074206F662068656170206D656D6F7279EB
:10053000000000003A2048656170206D656D6F72A3
:100540007920636F727275707465640001491820B8
:10055000ABBEFEE72600020070B505460C460A2039
:1005600000E06D1C00F011F835B128780028F8D1B2
:1005700002E0641C00F009F814B120780028F8D1DA
:10058000BDE870400A20AFF3008008B569468DF8D9
:1005900000000320ABBE08BD0349086000BF02494C
:1005A00009680029FBD17047EC000020034840692E
:1005B00020F4807001494861704700000010004835
:1005C0000348406940F48070014948617047000069
:1005D000001000480348406980F480700149486178
:1005E00070470000001000482348C06C40F0120023
:1005F0002149C8646FF0300020490860084600684F
:1006000040F0100008601D480830006820F03000FD
:100610001A49083108600846006840F03000086058
:10062000081F006820F00400091F086013480C3000
:10063000006820F0300011490C3108606FF4403040
:100640000F4908600846006840F48030086008469A
:10065000806820F4403088600846806840F440306C
:1006600088600846406820F4807048600846C0688A
:1006700020F44030C8607047001002400004004879
:10068000001000480348006820F004000149086099
:1006900070470000140400480348006840F004005C
:1006A00001490860704700001404004803480068CE
:1006B00080F00400014908607047000014040048FD
:1006C00004480068002804DD02480068401E014913
:1006D00008607047EC00002030B5024600204FF063
:1006E000E0210861501E486148170F21002804DBF3
:1006F0000B071C0E0F4B1C5406E00B071D0E0E4B78
:1007000000F00F04241F1D5500BF00204FF0E02112
:1007100088610846006940F00400086108460069E5
:1007200040F0020008610846006940F001000861DD
:1007300030BD000000E400E018ED00E05E4909680B
:1007400021F007015C4A11601146096841F002017D
:1007500011605A49096841F48071584A116000BF1C
:100760005649096801F480610029F9D010205349E5
:10077000496821F0F851514A51601146496841EAEF
:10078000006151601146096821F08071116000BF5D
:100790004A49096801F00071B1F1007FF8D047497A
:1007A000C96821F00301454AD1601146C96841F08A
:1007B0000201D1601146C96821F4FE4141F4A05103
:1007C000D1601146C96821F0700141F01001D1607B
:1007D0001146C96821F0C061D1601146C96841F075
:1007E0008071D1601146096841F08071116000BFCD
:1007F0003249096801F000710029F9D02F49896850
:1008000021F003012D4A91601146896841F00301EE
:10081000916000BF2949896801F00C010C29F9D1C8
:100820002649896821F0F001244A916011468968BF
:1008300021F4E06191601146896821F46051916072
:100840001146096821F08061116000BF1B490968E9
:1008500001F08061B1F1806FF8D01849096921F485
:10086000FE41164A11611146096941F4C0511161F6
:100870001146096941F4003111611146096941F4D9
:10088000803111611146096841F08061116000BF3B
:100890000A49096801F080610029F9D007498831C7
:1008A000096821F44001054AC2F888101146096E12
:1008B00041F4001111667047002002400010024010
:1008C0001A48C06C40F008001849C864184800680D
:1008D00020F47050164908600846006840F4205023
:1008E000086013482030006840F0EE601049203165
:1008F00008600F480830006840F470500C49083117
:100900000860081D006820F47050091D0860084642
:10091000006840F4A05008600548001D006820F001
:1009200060000349091D0860704700000010024084
:10093000000C004800B50D48806D40F400300B49B4
:1009400088650A488830006820F00C00C1F88800EB
:100950000846D0F8880040F00400C1F88800FFF78E
:10096000AFFF034800F010F800BD00000010024087
:1009700000440040642242430723B2FBF3F100BF6E
:100980004A1E111EFCD17047016821F0010101606F
:10099000016821F010210160016821F4004101602B
:1009A000416821F44051416042F28D01C16001680B
:1009B00041F00C0101601E4988421BD1016841F0E1
:1009C00020010160016821F040010160016821F00F
:1009D00010010160016821F080010160016821F4CB
:1009E00080710160016821F040010160016821F01F
:1009F000010101600F49884209D1016A41F04001BB
:100A000001620D49096841F0C0010B4A116001689B
:100A100041F00101016000BFC16901F4001100292A
:100A2000FAD000BFC16901F480010029FAD07047F3
:100A3000004C004000440040083801400146C869AD
:100A400000F0200010B1888CC0B270470020FCE795
:100A5000F0B504460E46174600250CE000BFE069DD
:100A600000F080000028FAD0705D20854FF4967069
:100A7000FFF780FF6D1CBD42F0D300BFE06900F0BE
:100A800040000028FAD0E06920F04000E061F0BDAD
:100A900010B504460D480068401C0C490860084623
:100AA0000068642810DD002000F016F910B1002065
:100AB00000F088F9002000F019F910B1012000F0D1
:100AC00081F900200149086010BD00005400002099
:100AD0002DE9F04105460C4600262046FFF740FC74
:100AE0000746002006E0295C225C914201D00126E5
:100AF00002E0401CB842F6DB00BF3046BDE8F081A2
:100B00002DE9F04705460E46761E0020A8554FF009
:100B10002808C1464846FFF7CDFB0446012213A131
:100B20001348FFF795FF002702E02020E0557F1CC7
:100B30004745FADB2046FFF713FC82465246214622
:100B40000B48FFF785FF012208A10948FFF780FF46
:100B50002846FFF705FC8246524629460448FFF71F
:100B600077FF2046FFF7D5FBBDE8F0870D000000BA
:100B70000044004070B50446464801682046FFF72F
:100B8000A7FF70B94448FFF7EBFB05462A464249E8
:100B90004248FFF75DFF002041490860FFF77CFDF8
:100BA00076E0404801682046FFF792FF70B93E4862
:100BB000FFF7D6FB05462A463B493848FFF748FF72
:100BC00000203A490860FFF75DFD61E038480168A0
:100BD0002046FFF77DFF70B93648FFF7C1FB054699
:100BE0002A4634492D48FFF733FF00202C4908607E
:100BF000FFF7E6FC4CE0304801682046FFF768FF4D
:100C000070B92E48FFF7ACFB05462A462B4923480E
:100C1000FFF71EFF002022490860FFF7C7FC37E0FE
:100C2000274801682046FFF753FF60B92548FFF7C2
:100C300097FB05462A4623491848FFF709FF01207C
:100C40001A49086024E0204801682046FFF740FF69
:100C500060B91E48FFF784FB05462A461B490F482A
:100C6000FFF7F6FE01200E49086011E01848016800
:100C70002046FFF72DFF10B900F0B4F808E0154842
:100C8000FFF76EFB05462A4612490448FFF7E0FECF
:100C900070BD0000300000206A00002000440040C9
:100CA00050000020340000208C0000204C00002068
:100CB000380000207A0000203C0000209D00002029
:100CC00040000020B000002044000020C6000020AA
:100CD0004800002058000020014603480068012811
:100CE00000D170470020FCE7500000200146034877
:100CF0000068012800D170470020FCE74C0000206C
:100D000008B500240026FFF719FDFFF76DFCFFF77B
:100D100011FE2848FFF724FB07463A462549264896
:100D2000FFF796FE2548FFF7D7FC0A20FFF7C2FA27
:100D300005463EE02048FFF781FE00900120FFF7C6
:100D40002BFC0020FFF7A4FE9DF8000000B930E066
:100D5000012269461848FFF77BFE9DF800002855E0
:100D6000285D0D2809D1022215A11348FFF770FE56
:100D70002846FFF7FFFE012611E09DF800007F28BE
:100D800003D09DF80000082809D121462846FFF726
:100D9000B7FE14B9002028700BE0641E09E0641C43
:100DA0000A2C01DC012E03D100202870002600242B
:100DB00000BFBFE7010000200044004000350C00E8
:100DC0000D0A000010B50446012C02D1FFF76EFC9D
:100DD00007E014B9FFF7FEFB03E0FFF767FCFFF73E
:100DE000F9FB10BD10B50D48FFF7BAFA04462246CC
:100DF0000A490B48FFF72CFE0A48006820B1FFF7AC
:100E000041FC0020074908600748006820B1FFF74F
:100E1000CDFB00200449086010BD0000DE0000206A
:100E2000004400404C000020500000204FF0407073
:100E3000E1EE100A70470000474F46460D000000E3
:100E4000464C4153484F46460D000000524F46461F
:100E50000D00000047464C4153480D0052464C419E
:100E600053480D00474F4E0D00000000524F4E0DED
:100E700000000000940E000800000020F0000000B8
:100E8000C4010008840F0008F00000206006000084
:100E9000E00100080047697665204C454420636FF7
:100EA0006E74726F6C2050616E656C20656E746537
:100EB000722074686520636F6D6D616E64733A0DA6
:100EC0000A0000006C0E00084C0E0008640E0008BA
:100ED000380E00085C0E0008540E0008400E000892
:100EE000000000000000000000000000496E766174
:100EF0006C696420636F6D6D616E640D0A005265EC
:100F000064204C4544206973206F6E0D0A004772BF
:100F100065656E204C4544206973206F6E0D0A0094
:100F2000524544204C4544206973206F66660D0A83
:100F300000477265656E204C4544206973206F66DA
:100F4000660D0A00526564204C4544206973206692
:100F50006C617368696E670D0A00477265656E2083
:100F60004C454420697320666C617368696E670D37
:100F70000A00466C617368206F66660D0A00000007
:040F8000000000006D
:040000050800018965
:00000001FF
